{
  "contractName": "Marketplace",
  "abi": [
    {
      "inputs": [
        {
          "internalType": "address",
          "name": "_arbiter",
          "type": "address"
        }
      ],
      "stateMutability": "nonpayable",
      "type": "constructor"
    },
    {
      "anonymous": false,
      "inputs": [
        {
          "indexed": false,
          "internalType": "address",
          "name": "deployer",
          "type": "address"
        },
        {
          "indexed": false,
          "internalType": "address",
          "name": "arbiter",
          "type": "address"
        }
      ],
      "name": "Deployed",
      "type": "event"
    },
    {
      "inputs": [],
      "name": "arbiter",
      "outputs": [
        {
          "internalType": "address",
          "name": "",
          "type": "address"
        }
      ],
      "stateMutability": "view",
      "type": "function",
      "constant": true
    },
    {
      "inputs": [
        {
          "internalType": "uint32",
          "name": "",
          "type": "uint32"
        }
      ],
      "name": "listings",
      "outputs": [
        {
          "internalType": "uint32",
          "name": "listingId",
          "type": "uint32"
        },
        {
          "internalType": "address",
          "name": "userAddress",
          "type": "address"
        },
        {
          "internalType": "string",
          "name": "listingName",
          "type": "string"
        },
        {
          "internalType": "string",
          "name": "duration",
          "type": "string"
        },
        {
          "internalType": "uint96",
          "name": "listedPrice",
          "type": "uint96"
        },
        {
          "internalType": "bool",
          "name": "isComplete",
          "type": "bool"
        }
      ],
      "stateMutability": "view",
      "type": "function",
      "constant": true
    },
    {
      "inputs": [],
      "name": "nextListingId",
      "outputs": [
        {
          "internalType": "uint32",
          "name": "",
          "type": "uint32"
        }
      ],
      "stateMutability": "view",
      "type": "function",
      "constant": true
    },
    {
      "inputs": [],
      "name": "nextPaymentId",
      "outputs": [
        {
          "internalType": "uint32",
          "name": "",
          "type": "uint32"
        }
      ],
      "stateMutability": "view",
      "type": "function",
      "constant": true
    },
    {
      "inputs": [],
      "name": "nextTaskRequestId",
      "outputs": [
        {
          "internalType": "uint32",
          "name": "",
          "type": "uint32"
        }
      ],
      "stateMutability": "view",
      "type": "function",
      "constant": true
    },
    {
      "inputs": [],
      "name": "nextUserId",
      "outputs": [
        {
          "internalType": "uint32",
          "name": "",
          "type": "uint32"
        }
      ],
      "stateMutability": "view",
      "type": "function",
      "constant": true
    },
    {
      "inputs": [
        {
          "internalType": "uint32",
          "name": "",
          "type": "uint32"
        }
      ],
      "name": "payments",
      "outputs": [
        {
          "internalType": "uint32",
          "name": "paymentId",
          "type": "uint32"
        },
        {
          "internalType": "address",
          "name": "payer",
          "type": "address"
        },
        {
          "internalType": "address",
          "name": "payee",
          "type": "address"
        },
        {
          "internalType": "uint96",
          "name": "amount",
          "type": "uint96"
        },
        {
          "internalType": "bool",
          "name": "released",
          "type": "bool"
        },
        {
          "internalType": "bool",
          "name": "markedComplete",
          "type": "bool"
        }
      ],
      "stateMutability": "view",
      "type": "function",
      "constant": true
    },
    {
      "inputs": [
        {
          "internalType": "uint32",
          "name": "",
          "type": "uint32"
        }
      ],
      "name": "taskRequests",
      "outputs": [
        {
          "internalType": "uint32",
          "name": "taskId",
          "type": "uint32"
        },
        {
          "internalType": "address payable",
          "name": "clientAddress",
          "type": "address"
        },
        {
          "internalType": "address payable",
          "name": "freelancerAddress",
          "type": "address"
        },
        {
          "internalType": "uint32",
          "name": "listingId",
          "type": "uint32"
        },
        {
          "internalType": "uint96",
          "name": "requestPrice",
          "type": "uint96"
        },
        {
          "internalType": "uint96",
          "name": "finalPrice",
          "type": "uint96"
        },
        {
          "internalType": "uint32",
          "name": "paymentId",
          "type": "uint32"
        },
        {
          "internalType": "enum Marketplace.TaskStatus",
          "name": "status",
          "type": "uint8"
        },
        {
          "internalType": "bool",
          "name": "inEscrow",
          "type": "bool"
        },
        {
          "internalType": "string",
          "name": "comments",
          "type": "string"
        }
      ],
      "stateMutability": "view",
      "type": "function",
      "constant": true
    },
    {
      "inputs": [
        {
          "internalType": "address",
          "name": "",
          "type": "address"
        }
      ],
      "name": "users",
      "outputs": [
        {
          "internalType": "uint32",
          "name": "userId",
          "type": "uint32"
        },
        {
          "internalType": "address",
          "name": "userAddress",
          "type": "address"
        },
        {
          "internalType": "string",
          "name": "userName",
          "type": "string"
        },
        {
          "internalType": "string",
          "name": "userPhone",
          "type": "string"
        },
        {
          "internalType": "string",
          "name": "userEmail",
          "type": "string"
        }
      ],
      "stateMutability": "view",
      "type": "function",
      "constant": true
    },
    {
      "inputs": [
        {
          "internalType": "address",
          "name": "_userAddress",
          "type": "address"
        },
        {
          "internalType": "string",
          "name": "_userName",
          "type": "string"
        },
        {
          "internalType": "string",
          "name": "_userPhone",
          "type": "string"
        },
        {
          "internalType": "string",
          "name": "_userEmail",
          "type": "string"
        }
      ],
      "name": "setUser",
      "outputs": [],
      "stateMutability": "nonpayable",
      "type": "function"
    },
    {
      "inputs": [
        {
          "internalType": "address",
          "name": "_userAddress",
          "type": "address"
        }
      ],
      "name": "loginUser",
      "outputs": [
        {
          "internalType": "bool",
          "name": "",
          "type": "bool"
        }
      ],
      "stateMutability": "view",
      "type": "function",
      "constant": true
    },
    {
      "inputs": [
        {
          "internalType": "address",
          "name": "_userAddress",
          "type": "address"
        },
        {
          "internalType": "string",
          "name": "_listingName",
          "type": "string"
        },
        {
          "internalType": "string",
          "name": "_duration",
          "type": "string"
        },
        {
          "internalType": "bool",
          "name": "_isComplete",
          "type": "bool"
        },
        {
          "internalType": "uint96",
          "name": "_listedPrice",
          "type": "uint96"
        },
        {
          "internalType": "uint32",
          "name": "_listingId",
          "type": "uint32"
        }
      ],
      "name": "setListing",
      "outputs": [],
      "stateMutability": "nonpayable",
      "type": "function"
    },
    {
      "inputs": [
        {
          "internalType": "uint32",
          "name": "_taskId",
          "type": "uint32"
        },
        {
          "internalType": "address payable",
          "name": "_clientAddress",
          "type": "address"
        },
        {
          "internalType": "address payable",
          "name": "_freelancerAddress",
          "type": "address"
        },
        {
          "internalType": "uint32",
          "name": "_listingId",
          "type": "uint32"
        },
        {
          "internalType": "uint96",
          "name": "_requestPrice",
          "type": "uint96"
        },
        {
          "internalType": "string",
          "name": "_comments",
          "type": "string"
        },
        {
          "internalType": "enum Marketplace.TaskStatus",
          "name": "_status",
          "type": "uint8"
        }
      ],
      "name": "setTaskRequest",
      "outputs": [],
      "stateMutability": "nonpayable",
      "type": "function"
    },
    {
      "inputs": [
        {
          "internalType": "uint32",
          "name": "_taskId",
          "type": "uint32"
        }
      ],
      "name": "acceptTaskRequest",
      "outputs": [],
      "stateMutability": "payable",
      "type": "function",
      "payable": true
    },
    {
      "inputs": [
        {
          "internalType": "uint32",
          "name": "_taskId",
          "type": "uint32"
        }
      ],
      "name": "markTaskComplete",
      "outputs": [],
      "stateMutability": "nonpayable",
      "type": "function"
    },
    {
      "inputs": [
        {
          "internalType": "uint32",
          "name": "_paymentId",
          "type": "uint32"
        }
      ],
      "name": "releaseFundsByArbiter",
      "outputs": [],
      "stateMutability": "nonpayable",
      "type": "function"
    }
  ],
  "bytecode": "0x60806040523480156200001157600080fd5b5060405162002dac38038062002dac833981810160405281019062000037919062000103565b600073ffffffffffffffffffffffffffffffffffffffff168173ffffffffffffffffffffffffffffffffffffffff161415620000aa576040517f08c379a0000000000000000000000000000000000000000000000000000000008152600401620000a190620001af565b60405180910390fd5b7f09e48df7857bd0c1e0d31bb8a85d42cf1874817895f171c917f6ee2cea73ec203382604051620000dd92919062000182565b60405180910390a15062000230565b600081519050620000fd8162000216565b92915050565b6000602082840312156200011657600080fd5b60006200012684828501620000ec565b91505092915050565b6200013a81620001e2565b82525050565b60006200014f601783620001d1565b91507f417262697465722061646472657373206973207a65726f0000000000000000006000830152602082019050919050565b60006040820190506200019960008301856200012f565b620001a860208301846200012f565b9392505050565b60006020820190508181036000830152620001ca8162000140565b9050919050565b600082825260208201905092915050565b6000620001ef82620001f6565b9050919050565b600073ffffffffffffffffffffffffffffffffffffffff82169050919050565b6200022181620001e2565b81146200022d57600080fd5b50565b612b6c80620002406000396000f3fe6080604052600436106100f35760003560e01c80639b22b9201161008a578063ad6af61111610059578063ad6af61114610328578063f81c234714610351578063f97ea61f14610393578063fe25e00a146103d5576100f3565b80639b22b92014610266578063a1e6a25514610291578063a87430ba146102bc578063aaccf1ec146102fd576100f3565b8063631766cd116100c6578063631766cd146101915780636bbeb9de146101ba57806379d7a059146101f757806384b54f6914610220576100f3565b806304a92c33146100f85780631165bef51461011457806311ee1bb21461013d5780631d201a8914610168575b600080fd5b610112600480360381019061010d91906122d4565b610400565b005b34801561012057600080fd5b5061013b60048036038101906101369190612158565b6107f0565b005b34801561014957600080fd5b50610152610ba3565b60405161015f91906126c0565b60405180910390f35b34801561017457600080fd5b5061018f600480360381019061018a919061221b565b610bb9565b005b34801561019d57600080fd5b506101b860048036038101906101b391906122d4565b610f48565b005b3480156101c657600080fd5b506101e160048036038101906101dc919061212f565b6111b6565b6040516101ee91906125e5565b60405180910390f35b34801561020357600080fd5b5061021e600480360381019061021991906122d4565b611251565b005b34801561022c57600080fd5b50610247600480360381019061024291906122d4565b61145b565b60405161025d9a999897969594939291906126db565b60405180910390f35b34801561027257600080fd5b5061027b6115f1565b60405161028891906126c0565b60405180910390f35b34801561029d57600080fd5b506102a6611607565b6040516102b391906126c0565b60405180910390f35b3480156102c857600080fd5b506102e360048036038101906102de919061212f565b61161d565b6040516102f49594939291906127df565b60405180910390f35b34801561030957600080fd5b5061031261181b565b60405161031f91906126c0565b60405180910390f35b34801561033457600080fd5b5061034f600480360381019061034a91906122fd565b611831565b005b34801561035d57600080fd5b50610378600480360381019061037391906122d4565b611cbb565b60405161038a96959493929190612847565b60405180910390f35b34801561039f57600080fd5b506103ba60048036038101906103b591906122d4565b611e5c565b6040516103cc9695949392919061277e565b60405180910390f35b3480156103e157600080fd5b506103ea611f1a565b6040516103f791906125ca565b60405180910390f35b6000600360008363ffffffff1663ffffffff168152602001908152602001600020905060008054906101000a900473ffffffffffffffffffffffffffffffffffffffff1673ffffffffffffffffffffffffffffffffffffffff166108fc349081150290604051600060405180830381858888f19350505050158015610489573d6000803e3d6000fd5b508060020160009054906101000a90046bffffffffffffffffffffffff1681600201600c6101000a8154816bffffffffffffffffffffffff02191690836bffffffffffffffffffffffff160217905550600181600201601c6101000a81548160ff02191690836002811115610527577f4e487b7100000000000000000000000000000000000000000000000000000000600052602160045260246000fd5b0217905550600181600201601d6101000a81548160ff0219169083151502179055506005600c81819054906101000a900463ffffffff168092919061056b906129d4565b91906101000a81548163ffffffff021916908363ffffffff160217905550506040518060c001604052806005600c9054906101000a900463ffffffff1663ffffffff1681526020018260000160049054906101000a900473ffffffffffffffffffffffffffffffffffffffff1673ffffffffffffffffffffffffffffffffffffffff1681526020018260010160009054906101000a900473ffffffffffffffffffffffffffffffffffffffff1673ffffffffffffffffffffffffffffffffffffffff168152602001346bffffffffffffffffffffffff16815260200160001515815260200160001515815250600460006005600c9054906101000a900463ffffffff1663ffffffff1663ffffffff16815260200190815260200160002060008201518160000160006101000a81548163ffffffff021916908363ffffffff16021790555060208201518160000160046101000a81548173ffffffffffffffffffffffffffffffffffffffff021916908373ffffffffffffffffffffffffffffffffffffffff16021790555060408201518160010160006101000a81548173ffffffffffffffffffffffffffffffffffffffff021916908373ffffffffffffffffffffffffffffffffffffffff16021790555060608201518160010160146101000a8154816bffffffffffffffffffffffff02191690836bffffffffffffffffffffffff16021790555060808201518160020160006101000a81548160ff02191690831515021790555060a08201518160020160016101000a81548160ff0219169083151502179055509050506005600c9054906101000a900463ffffffff168160020160186101000a81548163ffffffff021916908363ffffffff1602179055505050565b60008163ffffffff161415610a6b576005600481819054906101000a900463ffffffff1680929190610821906129d4565b91906101000a81548163ffffffff021916908363ffffffff160217905550506040518060c00160405280600560049054906101000a900463ffffffff1663ffffffff1681526020018973ffffffffffffffffffffffffffffffffffffffff16815260200188888080601f016020809104026020016040519081016040528093929190818152602001838380828437600081840152601f19601f82011690508083019250505050505050815260200186868080601f016020809104026020016040519081016040528093929190818152602001838380828437600081840152601f19601f820116905080830192505050505050508152602001836bffffffffffffffffffffffff16815260200184151581525060026000600560049054906101000a900463ffffffff1663ffffffff1663ffffffff16815260200190815260200160002060008201518160000160006101000a81548163ffffffff021916908363ffffffff16021790555060208201518160000160046101000a81548173ffffffffffffffffffffffffffffffffffffffff021916908373ffffffffffffffffffffffffffffffffffffffff16021790555060408201518160010190805190602001906109ee929190611f3e565b506060820151816002019080519060200190610a0b929190611f3e565b5060808201518160030160006101000a8154816bffffffffffffffffffffffff02191690836bffffffffffffffffffffffff16021790555060a082015181600301600c6101000a81548160ff021916908315150217905550905050610b99565b6000600260008363ffffffff1663ffffffff16815260200190815260200160002090508873ffffffffffffffffffffffffffffffffffffffff168160000160049054906101000a900473ffffffffffffffffffffffffffffffffffffffff1673ffffffffffffffffffffffffffffffffffffffff1614610b20576040517f08c379a0000000000000000000000000000000000000000000000000000000008152600401610b1790612620565b60405180910390fd5b8787826001019190610b33929190611fc4565b508585826002019190610b47929190611fc4565b508381600301600c6101000a81548160ff021916908315150217905550828160030160006101000a8154816bffffffffffffffffffffffff02191690836bffffffffffffffffffffffff160217905550505b5050505050505050565b600560089054906101000a900463ffffffff1681565b600073ffffffffffffffffffffffffffffffffffffffff16600160008973ffffffffffffffffffffffffffffffffffffffff1673ffffffffffffffffffffffffffffffffffffffff16815260200190815260200160002060000160049054906101000a900473ffffffffffffffffffffffffffffffffffffffff1673ffffffffffffffffffffffffffffffffffffffff161415610ebe576005600081819054906101000a900463ffffffff1680929190610c72906129d4565b91906101000a81548163ffffffff021916908363ffffffff160217905550506040518060a00160405280600560009054906101000a900463ffffffff1663ffffffff1681526020018873ffffffffffffffffffffffffffffffffffffffff16815260200187878080601f016020809104026020016040519081016040528093929190818152602001838380828437600081840152601f19601f82011690508083019250505050505050815260200185858080601f016020809104026020016040519081016040528093929190818152602001838380828437600081840152601f19601f82011690508083019250505050505050815260200183838080601f016020809104026020016040519081016040528093929190818152602001838380828437600081840152601f19601f82011690508083019250505050505050815250600160008973ffffffffffffffffffffffffffffffffffffffff1673ffffffffffffffffffffffffffffffffffffffff16815260200190815260200160002060008201518160000160006101000a81548163ffffffff021916908363ffffffff16021790555060208201518160000160046101000a81548173ffffffffffffffffffffffffffffffffffffffff021916908373ffffffffffffffffffffffffffffffffffffffff1602179055506040820151816001019080519060200190610e7b929190611f3e565b506060820151816002019080519060200190610e98929190611f3e565b506080820151816003019080519060200190610eb5929190611f3e565b50905050610f3f565b6000600160008973ffffffffffffffffffffffffffffffffffffffff1673ffffffffffffffffffffffffffffffffffffffff16815260200190815260200160002090508686826001019190610f14929190611fc4565b508484826002019190610f28929190611fc4565b508282826003019190610f3c929190611fc4565b50505b50505050505050565b6000600360008363ffffffff1663ffffffff16815260200190815260200160002090508060000160049054906101000a900473ffffffffffffffffffffffffffffffffffffffff1673ffffffffffffffffffffffffffffffffffffffff163373ffffffffffffffffffffffffffffffffffffffff1614610ffd576040517f08c379a0000000000000000000000000000000000000000000000000000000008152600401610ff490612640565b60405180910390fd5b60016002811115611037577f4e487b7100000000000000000000000000000000000000000000000000000000600052602160045260246000fd5b81600201601c9054906101000a900460ff166002811115611081577f4e487b7100000000000000000000000000000000000000000000000000000000600052602160045260246000fd5b146110c1576040517f08c379a00000000000000000000000000000000000000000000000000000000081526004016110b890612680565b60405180910390fd5b600281600201601c6101000a81548160ff0219169083600281111561110f577f4e487b7100000000000000000000000000000000000000000000000000000000600052602160045260246000fd5b02179055506001600260008360010160149054906101000a900463ffffffff1663ffffffff1663ffffffff168152602001908152602001600020600301600c6101000a81548160ff0219169083151502179055506001600460008360020160189054906101000a900463ffffffff1663ffffffff1663ffffffff16815260200190815260200160002060020160016101000a81548160ff0219169083151502179055505050565b60008073ffffffffffffffffffffffffffffffffffffffff16600160008473ffffffffffffffffffffffffffffffffffffffff1673ffffffffffffffffffffffffffffffffffffffff16815260200190815260200160002060000160049054906101000a900473ffffffffffffffffffffffffffffffffffffffff1673ffffffffffffffffffffffffffffffffffffffff1614159050919050565b60008054906101000a900473ffffffffffffffffffffffffffffffffffffffff1673ffffffffffffffffffffffffffffffffffffffff163373ffffffffffffffffffffffffffffffffffffffff16146112df576040517f08c379a00000000000000000000000000000000000000000000000000000000081526004016112d6906126a0565b60405180910390fd5b6000600460008363ffffffff1663ffffffff16815260200190815260200160002090508060020160009054906101000a900460ff1615611354576040517f08c379a000000000000000000000000000000000000000000000000000000000815260040161134b90612660565b60405180910390fd5b8060020160019054906101000a900460ff166113a5576040517f08c379a000000000000000000000000000000000000000000000000000000000815260040161139c90612600565b60405180910390fd5b60018160020160006101000a81548160ff0219169083151502179055508060010160009054906101000a900473ffffffffffffffffffffffffffffffffffffffff1673ffffffffffffffffffffffffffffffffffffffff166108fc8260010160149054906101000a90046bffffffffffffffffffffffff166bffffffffffffffffffffffff169081150290604051600060405180830381858888f19350505050158015611456573d6000803e3d6000fd5b505050565b60036020528060005260406000206000915090508060000160009054906101000a900463ffffffff16908060000160049054906101000a900473ffffffffffffffffffffffffffffffffffffffff16908060010160009054906101000a900473ffffffffffffffffffffffffffffffffffffffff16908060010160149054906101000a900463ffffffff16908060020160009054906101000a90046bffffffffffffffffffffffff169080600201600c9054906101000a90046bffffffffffffffffffffffff16908060020160189054906101000a900463ffffffff169080600201601c9054906101000a900460ff169080600201601d9054906101000a900460ff169080600301805461156e906129a2565b80601f016020809104026020016040519081016040528092919081815260200182805461159a906129a2565b80156115e75780601f106115bc576101008083540402835291602001916115e7565b820191906000526020600020905b8154815290600101906020018083116115ca57829003601f168201915b505050505090508a565b6005600c9054906101000a900463ffffffff1681565b600560009054906101000a900463ffffffff1681565b60016020528060005260406000206000915090508060000160009054906101000a900463ffffffff16908060000160049054906101000a900473ffffffffffffffffffffffffffffffffffffffff169080600101805461167c906129a2565b80601f01602080910402602001604051908101604052809291908181526020018280546116a8906129a2565b80156116f55780601f106116ca576101008083540402835291602001916116f5565b820191906000526020600020905b8154815290600101906020018083116116d857829003601f168201915b50505050509080600201805461170a906129a2565b80601f0160208091040260200160405190810160405280929190818152602001828054611736906129a2565b80156117835780601f1061175857610100808354040283529160200191611783565b820191906000526020600020905b81548152906001019060200180831161176657829003601f168201915b505050505090806003018054611798906129a2565b80601f01602080910402602001604051908101604052809291908181526020018280546117c4906129a2565b80156118115780601f106117e657610100808354040283529160200191611811565b820191906000526020600020905b8154815290600101906020018083116117f457829003601f168201915b5050505050905085565b600560049054906101000a900463ffffffff1681565b60008863ffffffff161415611bf3576005600881819054906101000a900463ffffffff1680929190611862906129d4565b91906101000a81548163ffffffff021916908363ffffffff16021790555050604051806101400160405280600560089054906101000a900463ffffffff1663ffffffff1681526020018873ffffffffffffffffffffffffffffffffffffffff1681526020018773ffffffffffffffffffffffffffffffffffffffff1681526020018663ffffffff168152602001856bffffffffffffffffffffffff16815260200160006bffffffffffffffffffffffff168152602001600063ffffffff16815260200182600281111561195e577f4e487b7100000000000000000000000000000000000000000000000000000000600052602160045260246000fd5b815260200160001515815260200184848080601f016020809104026020016040519081016040528093929190818152602001838380828437600081840152601f19601f8201169050808301925050505050505081525060036000600560089054906101000a900463ffffffff1663ffffffff1663ffffffff16815260200190815260200160002060008201518160000160006101000a81548163ffffffff021916908363ffffffff16021790555060208201518160000160046101000a81548173ffffffffffffffffffffffffffffffffffffffff021916908373ffffffffffffffffffffffffffffffffffffffff16021790555060408201518160010160006101000a81548173ffffffffffffffffffffffffffffffffffffffff021916908373ffffffffffffffffffffffffffffffffffffffff16021790555060608201518160010160146101000a81548163ffffffff021916908363ffffffff16021790555060808201518160020160006101000a8154816bffffffffffffffffffffffff02191690836bffffffffffffffffffffffff16021790555060a082015181600201600c6101000a8154816bffffffffffffffffffffffff02191690836bffffffffffffffffffffffff16021790555060c08201518160020160186101000a81548163ffffffff021916908363ffffffff16021790555060e082015181600201601c6101000a81548160ff02191690836002811115611ba7577f4e487b7100000000000000000000000000000000000000000000000000000000600052602160045260246000fd5b021790555061010082015181600201601d6101000a81548160ff021916908315150217905550610120820151816003019080519060200190611bea929190611f3e565b50905050611cb1565b6000600360008a63ffffffff1663ffffffff1681526020019081526020016000209050848160020160006101000a8154816bffffffffffffffffffffffff02191690836bffffffffffffffffffffffff1602179055508383826003019190611c5c929190611fc4565b508181600201601c6101000a81548160ff02191690836002811115611caa577f4e487b7100000000000000000000000000000000000000000000000000000000600052602160045260246000fd5b0217905550505b5050505050505050565b60026020528060005260406000206000915090508060000160009054906101000a900463ffffffff16908060000160049054906101000a900473ffffffffffffffffffffffffffffffffffffffff1690806001018054611d1a906129a2565b80601f0160208091040260200160405190810160405280929190818152602001828054611d46906129a2565b8015611d935780601f10611d6857610100808354040283529160200191611d93565b820191906000526020600020905b815481529060010190602001808311611d7657829003601f168201915b505050505090806002018054611da8906129a2565b80601f0160208091040260200160405190810160405280929190818152602001828054611dd4906129a2565b8015611e215780601f10611df657610100808354040283529160200191611e21565b820191906000526020600020905b815481529060010190602001808311611e0457829003601f168201915b5050505050908060030160009054906101000a90046bffffffffffffffffffffffff169080600301600c9054906101000a900460ff16905086565b60046020528060005260406000206000915090508060000160009054906101000a900463ffffffff16908060000160049054906101000a900473ffffffffffffffffffffffffffffffffffffffff16908060010160009054906101000a900473ffffffffffffffffffffffffffffffffffffffff16908060010160149054906101000a90046bffffffffffffffffffffffff16908060020160009054906101000a900460ff16908060020160019054906101000a900460ff16905086565b60008054906101000a900473ffffffffffffffffffffffffffffffffffffffff1681565b828054611f4a906129a2565b90600052602060002090601f016020900481019282611f6c5760008555611fb3565b82601f10611f8557805160ff1916838001178555611fb3565b82800160010185558215611fb3579182015b82811115611fb2578251825591602001919060010190611f97565b5b509050611fc0919061204a565b5090565b828054611fd0906129a2565b90600052602060002090601f016020900481019282611ff25760008555612039565b82601f1061200b57803560ff1916838001178555612039565b82800160010185558215612039579182015b8281111561203857823582559160200191906001019061201d565b5b509050612046919061204a565b5090565b5b8082111561206357600081600090555060010161204b565b5090565b60008135905061207681612ab3565b92915050565b60008135905061208b81612aca565b92915050565b6000813590506120a081612ae1565b92915050565b6000813590506120b581612af8565b92915050565b60008083601f8401126120cd57600080fd5b8235905067ffffffffffffffff8111156120e657600080fd5b6020830191508360018202830111156120fe57600080fd5b9250929050565b60008135905061211481612b08565b92915050565b60008135905061212981612b1f565b92915050565b60006020828403121561214157600080fd5b600061214f84828501612067565b91505092915050565b60008060008060008060008060c0898b03121561217457600080fd5b60006121828b828c01612067565b985050602089013567ffffffffffffffff81111561219f57600080fd5b6121ab8b828c016120bb565b9750975050604089013567ffffffffffffffff8111156121ca57600080fd5b6121d68b828c016120bb565b955095505060606121e98b828c01612091565b93505060806121fa8b828c0161211a565b92505060a061220b8b828c01612105565b9150509295985092959890939650565b60008060008060008060006080888a03121561223657600080fd5b60006122448a828b01612067565b975050602088013567ffffffffffffffff81111561226157600080fd5b61226d8a828b016120bb565b9650965050604088013567ffffffffffffffff81111561228c57600080fd5b6122988a828b016120bb565b9450945050606088013567ffffffffffffffff8111156122b757600080fd5b6122c38a828b016120bb565b925092505092959891949750929550565b6000602082840312156122e657600080fd5b60006122f484828501612105565b91505092915050565b60008060008060008060008060e0898b03121561231957600080fd5b60006123278b828c01612105565b98505060206123388b828c0161207c565b97505060406123498b828c0161207c565b965050606061235a8b828c01612105565b955050608061236b8b828c0161211a565b94505060a089013567ffffffffffffffff81111561238857600080fd5b6123948b828c016120bb565b935093505060c06123a78b828c016120a6565b9150509295985092959890939650565b6123c0816128e4565b82525050565b6123cf816128d2565b82525050565b6123de816128f6565b82525050565b6123ed8161295d565b82525050565b60006123fe826128b6565b61240881856128c1565b935061241881856020860161296f565b61242181612a8e565b840191505092915050565b60006124396013836128c1565b91507f4e6f74206d61726b656420636f6d706c657465000000000000000000000000006000830152602082019050919050565b60006124796009836128c1565b91507f4e6f74206f776e657200000000000000000000000000000000000000000000006000830152602082019050919050565b60006124b9600b836128c1565b91507f4f6e6c7920636c69656e740000000000000000000000000000000000000000006000830152602082019050919050565b60006124f96010836128c1565b91507f416c72656164792072656c6561736564000000000000000000000000000000006000830152602082019050919050565b6000612539600c836128c1565b91507f4e6f7420616363657074656400000000000000000000000000000000000000006000830152602082019050919050565b6000612579600b836128c1565b91507f4e6f7420617262697465720000000000000000000000000000000000000000006000830152602082019050919050565b6125b581612935565b82525050565b6125c481612945565b82525050565b60006020820190506125df60008301846123c6565b92915050565b60006020820190506125fa60008301846123d5565b92915050565b600060208201905081810360008301526126198161242c565b9050919050565b600060208201905081810360008301526126398161246c565b9050919050565b60006020820190508181036000830152612659816124ac565b9050919050565b60006020820190508181036000830152612679816124ec565b9050919050565b600060208201905081810360008301526126998161252c565b9050919050565b600060208201905081810360008301526126b98161256c565b9050919050565b60006020820190506126d560008301846125ac565b92915050565b6000610140820190506126f1600083018d6125ac565b6126fe602083018c6123b7565b61270b604083018b6123b7565b612718606083018a6125ac565b61272560808301896125bb565b61273260a08301886125bb565b61273f60c08301876125ac565b61274c60e08301866123e4565b61275a6101008301856123d5565b81810361012083015261276d81846123f3565b90509b9a5050505050505050505050565b600060c08201905061279360008301896125ac565b6127a060208301886123c6565b6127ad60408301876123c6565b6127ba60608301866125bb565b6127c760808301856123d5565b6127d460a08301846123d5565b979650505050505050565b600060a0820190506127f460008301886125ac565b61280160208301876123c6565b818103604083015261281381866123f3565b9050818103606083015261282781856123f3565b9050818103608083015261283b81846123f3565b90509695505050505050565b600060c08201905061285c60008301896125ac565b61286960208301886123c6565b818103604083015261287b81876123f3565b9050818103606083015261288f81866123f3565b905061289e60808301856125bb565b6128ab60a08301846123d5565b979650505050505050565b600081519050919050565b600082825260208201905092915050565b60006128dd82612915565b9050919050565b60006128ef82612915565b9050919050565b60008115159050919050565b600081905061291082612a9f565b919050565b600073ffffffffffffffffffffffffffffffffffffffff82169050919050565b600063ffffffff82169050919050565b60006bffffffffffffffffffffffff82169050919050565b600061296882612902565b9050919050565b60005b8381101561298d578082015181840152602081019050612972565b8381111561299c576000848401525b50505050565b600060028204905060018216806129ba57607f821691505b602082108114156129ce576129cd612a5f565b5b50919050565b60006129df82612935565b915063ffffffff8214156129f6576129f5612a01565b5b600182019050919050565b7f4e487b7100000000000000000000000000000000000000000000000000000000600052601160045260246000fd5b7f4e487b7100000000000000000000000000000000000000000000000000000000600052602160045260246000fd5b7f4e487b7100000000000000000000000000000000000000000000000000000000600052602260045260246000fd5b6000601f19601f8301169050919050565b60038110612ab057612aaf612a30565b5b50565b612abc816128d2565b8114612ac757600080fd5b50565b612ad3816128e4565b8114612ade57600080fd5b50565b612aea816128f6565b8114612af557600080fd5b50565b60038110612b0557600080fd5b50565b612b1181612935565b8114612b1c57600080fd5b50565b612b2881612945565b8114612b3357600080fd5b5056fea264697066735822122099054ed1340c5b0a83877dcf7b03a14f82f65126aeb2a345365e8993a714504964736f6c63430008000033",
  "immutableReferences": {},
  "source": "// SPDX-License-Identifier: MIT\r\npragma solidity ^0.8.0;\r\n\r\ncontract Marketplace{\r\n    address public arbiter;\r\n\r\n    constructor(address _arbiter) {\r\n        require(_arbiter != address(0), \"Arbiter address is zero\");\r\n\r\n        // Optional debug log\r\n        emit Deployed(msg.sender, _arbiter);\r\n    }\r\n    event Deployed(address deployer, address arbiter);\r\n\r\n    enum TaskStatus { Pending, Accepted, Completed }\r\n\r\n    struct User {\r\n        uint32 userId;\r\n        address userAddress;\r\n        string userName;\r\n        string userPhone;\r\n        string userEmail;\r\n    }\r\n\r\n    struct Listing {\r\n        uint32 listingId;\r\n        address userAddress;\r\n        string listingName;\r\n        string duration;\r\n        uint96 listedPrice;\r\n        bool isComplete;\r\n    }\r\n\r\n    struct TaskRequest {\r\n        uint32 taskId;\r\n        address payable clientAddress;\r\n        address payable freelancerAddress;\r\n        uint32 listingId;\r\n        uint96 requestPrice;\r\n        uint96 finalPrice;\r\n        uint32 paymentId;\r\n        TaskStatus status;\r\n        bool inEscrow;\r\n        string comments;\r\n    }\r\n\r\n    struct Payment {\r\n        uint32 paymentId;\r\n        address payer;\r\n        address payee;\r\n        uint96 amount;\r\n        bool released;\r\n        bool markedComplete;\r\n    }\r\n\r\n    mapping(address => User) public users;\r\n    mapping(uint32 => Listing) public listings;\r\n    mapping(uint32 => TaskRequest) public taskRequests;\r\n    mapping(uint32 => Payment) public payments;\r\n\r\n    uint32 public nextUserId;\r\n    uint32 public nextListingId;\r\n    uint32 public nextTaskRequestId;\r\n    uint32 public nextPaymentId;\r\n\r\n    modifier onlyArbiter() {\r\n        require(msg.sender == arbiter, \"Not arbiter\");\r\n        _;\r\n    }\r\n\r\n    // USER\r\n    function setUser(\r\n        address _userAddress,\r\n        string calldata _userName,\r\n        string calldata _userPhone,\r\n        string calldata _userEmail\r\n    ) external {\r\n        if (users[_userAddress].userAddress == address(0)) {\r\n            nextUserId++;\r\n            users[_userAddress] = User(nextUserId, _userAddress, _userName, _userPhone, _userEmail);\r\n        } else {\r\n            User storage user = users[_userAddress];\r\n            user.userName = _userName;\r\n            user.userPhone = _userPhone;\r\n            user.userEmail = _userEmail;\r\n        }\r\n    }\r\n\r\n    function loginUser(address _userAddress) external view returns (bool) {\r\n        return users[_userAddress].userAddress != address(0);\r\n    }\r\n\r\n    // LISTING\r\n    function setListing(\r\n        address _userAddress,\r\n        string calldata _listingName,\r\n        string calldata _duration,\r\n        bool _isComplete,\r\n        uint96 _listedPrice,\r\n        uint32 _listingId // pass 0 to create new\r\n    ) external {\r\n        if (_listingId == 0) {\r\n            nextListingId++;\r\n            listings[nextListingId] = Listing(\r\n                nextListingId,\r\n                _userAddress,\r\n                _listingName,\r\n                _duration,\r\n                _listedPrice,\r\n                _isComplete\r\n            );\r\n        } else {\r\n            Listing storage listing = listings[_listingId];\r\n            require(listing.userAddress == _userAddress, \"Not owner\");\r\n            listing.listingName = _listingName;\r\n            listing.duration = _duration;\r\n            listing.isComplete = _isComplete;\r\n            listing.listedPrice = _listedPrice;\r\n        }\r\n    }\r\n\r\n    // TASK REQUEST\r\n    function setTaskRequest(\r\n        uint32 _taskId,\r\n        address payable _clientAddress,\r\n        address payable _freelancerAddress,\r\n        uint32 _listingId,\r\n        uint96 _requestPrice,\r\n        string calldata _comments,\r\n        TaskStatus _status\r\n    ) external {\r\n        if (_taskId == 0) {\r\n            nextTaskRequestId++;\r\n            taskRequests[nextTaskRequestId] = TaskRequest(\r\n                nextTaskRequestId,\r\n                _clientAddress,\r\n                _freelancerAddress,\r\n                _listingId,\r\n                _requestPrice,\r\n                0, // finalPrice\r\n                0, // paymentId\r\n                _status,\r\n                false, // inEscrow\r\n                _comments\r\n            );\r\n        } else {\r\n            TaskRequest storage task = taskRequests[_taskId];\r\n            task.requestPrice = _requestPrice;\r\n            task.comments = _comments;\r\n            task.status = _status;\r\n        }\r\n    }\r\n\r\n    // ACCEPT TASK + ESCROW\r\n    function acceptTaskRequest(uint32 _taskId) external payable {\r\n        TaskRequest storage task = taskRequests[_taskId];\r\n       \r\n        payable(arbiter).transfer(msg.value);\r\n\r\n        task.finalPrice = task.requestPrice;\r\n        task.status = TaskStatus.Accepted;\r\n        task.inEscrow = true;\r\n\r\n        nextPaymentId++;\r\n        payments[nextPaymentId] = Payment({\r\n            paymentId: nextPaymentId,\r\n            payer: task.clientAddress,\r\n            payee: task.freelancerAddress,\r\n            amount: uint96(msg.value),\r\n            released: false,\r\n            markedComplete: false\r\n        });\r\n\r\n        task.paymentId = nextPaymentId;\r\n    }\r\n\r\n    function markTaskComplete(uint32 _taskId) external {\r\n        TaskRequest storage task = taskRequests[_taskId];\r\n        require(msg.sender == task.clientAddress, \"Only client\");\r\n        require(task.status == TaskStatus.Accepted, \"Not accepted\");\r\n\r\n        task.status = TaskStatus.Completed;\r\n        listings[task.listingId].isComplete = true;\r\n\r\n        payments[task.paymentId].markedComplete = true;\r\n    }\r\n\r\n    function releaseFundsByArbiter(uint32 _paymentId) external onlyArbiter {\r\n        Payment storage payment = payments[_paymentId];\r\n        require(!payment.released, \"Already released\");\r\n        require(payment.markedComplete, \"Not marked complete\");\r\n\r\n        payment.released = true;\r\n        payable(payment.payee).transfer(payment.amount);\r\n    }\r\n}\r\n",
  "sourcePath": "D:\\gandhinagar\\131238\\contracts\\Marketplace.sol",
  "compiler": {
    "name": "solc",
    "version": "0.8.0+commit.c7dfd78e.Emscripten.clang"
  },
  "schemaVersion": "3.4.16",
  "updatedAt": "2025-04-13T05:16:51.169Z",
  "networkType": "ethereum",
  "devdoc": {
    "kind": "dev",
    "methods": {},
    "version": 1
  },
  "userdoc": {
    "kind": "user",
    "methods": {},
    "version": 1
  }
}